{
  "_format": "hh-sol-artifact-1",
  "contractName": "pnl",
  "sourceName": "contracts/nftMint.sol",
  "abi": [
    {
      "inputs": [],
      "stateMutability": "nonpayable",
      "type": "constructor"
    },
    {
      "anonymous": false,
      "inputs": [
        {
          "indexed": true,
          "internalType": "address",
          "name": "owner",
          "type": "address"
        },
        {
          "indexed": true,
          "internalType": "address",
          "name": "approved",
          "type": "address"
        },
        {
          "indexed": true,
          "internalType": "uint256",
          "name": "tokenId",
          "type": "uint256"
        }
      ],
      "name": "Approval",
      "type": "event"
    },
    {
      "anonymous": false,
      "inputs": [
        {
          "indexed": true,
          "internalType": "address",
          "name": "owner",
          "type": "address"
        },
        {
          "indexed": true,
          "internalType": "address",
          "name": "operator",
          "type": "address"
        },
        {
          "indexed": false,
          "internalType": "bool",
          "name": "approved",
          "type": "bool"
        }
      ],
      "name": "ApprovalForAll",
      "type": "event"
    },
    {
      "anonymous": false,
      "inputs": [
        {
          "indexed": true,
          "internalType": "address",
          "name": "from",
          "type": "address"
        },
        {
          "indexed": true,
          "internalType": "address",
          "name": "to",
          "type": "address"
        },
        {
          "indexed": true,
          "internalType": "uint256",
          "name": "tokenId",
          "type": "uint256"
        }
      ],
      "name": "Transfer",
      "type": "event"
    },
    {
      "inputs": [
        {
          "internalType": "address",
          "name": "to",
          "type": "address"
        },
        {
          "internalType": "uint256",
          "name": "tokenId",
          "type": "uint256"
        }
      ],
      "name": "approve",
      "outputs": [],
      "stateMutability": "nonpayable",
      "type": "function"
    },
    {
      "inputs": [
        {
          "internalType": "address",
          "name": "owner",
          "type": "address"
        }
      ],
      "name": "balanceOf",
      "outputs": [
        {
          "internalType": "uint256",
          "name": "",
          "type": "uint256"
        }
      ],
      "stateMutability": "view",
      "type": "function"
    },
    {
      "inputs": [],
      "name": "deployed",
      "outputs": [
        {
          "internalType": "string",
          "name": "",
          "type": "string"
        }
      ],
      "stateMutability": "pure",
      "type": "function"
    },
    {
      "inputs": [
        {
          "internalType": "uint256",
          "name": "tokenId",
          "type": "uint256"
        }
      ],
      "name": "getApproved",
      "outputs": [
        {
          "internalType": "address",
          "name": "",
          "type": "address"
        }
      ],
      "stateMutability": "view",
      "type": "function"
    },
    {
      "inputs": [
        {
          "internalType": "address",
          "name": "owner",
          "type": "address"
        },
        {
          "internalType": "address",
          "name": "operator",
          "type": "address"
        }
      ],
      "name": "isApprovedForAll",
      "outputs": [
        {
          "internalType": "bool",
          "name": "",
          "type": "bool"
        }
      ],
      "stateMutability": "view",
      "type": "function"
    },
    {
      "inputs": [
        {
          "internalType": "string",
          "name": "tokenURI",
          "type": "string"
        }
      ],
      "name": "mintToken",
      "outputs": [
        {
          "internalType": "uint256",
          "name": "",
          "type": "uint256"
        }
      ],
      "stateMutability": "nonpayable",
      "type": "function"
    },
    {
      "inputs": [],
      "name": "name",
      "outputs": [
        {
          "internalType": "string",
          "name": "",
          "type": "string"
        }
      ],
      "stateMutability": "view",
      "type": "function"
    },
    {
      "inputs": [
        {
          "internalType": "address",
          "name": "seller",
          "type": "address"
        },
        {
          "internalType": "uint256",
          "name": "tokenId",
          "type": "uint256"
        },
        {
          "internalType": "uint256",
          "name": "price",
          "type": "uint256"
        }
      ],
      "name": "nftTransfer",
      "outputs": [],
      "stateMutability": "payable",
      "type": "function"
    },
    {
      "inputs": [
        {
          "internalType": "uint256",
          "name": "tokenId",
          "type": "uint256"
        }
      ],
      "name": "ownerOf",
      "outputs": [
        {
          "internalType": "address",
          "name": "",
          "type": "address"
        }
      ],
      "stateMutability": "view",
      "type": "function"
    },
    {
      "inputs": [
        {
          "internalType": "address",
          "name": "from",
          "type": "address"
        },
        {
          "internalType": "address",
          "name": "to",
          "type": "address"
        },
        {
          "internalType": "uint256",
          "name": "tokenId",
          "type": "uint256"
        }
      ],
      "name": "safeTransferFrom",
      "outputs": [],
      "stateMutability": "nonpayable",
      "type": "function"
    },
    {
      "inputs": [
        {
          "internalType": "address",
          "name": "from",
          "type": "address"
        },
        {
          "internalType": "address",
          "name": "to",
          "type": "address"
        },
        {
          "internalType": "uint256",
          "name": "tokenId",
          "type": "uint256"
        },
        {
          "internalType": "bytes",
          "name": "data",
          "type": "bytes"
        }
      ],
      "name": "safeTransferFrom",
      "outputs": [],
      "stateMutability": "nonpayable",
      "type": "function"
    },
    {
      "inputs": [
        {
          "internalType": "address",
          "name": "operator",
          "type": "address"
        },
        {
          "internalType": "bool",
          "name": "approved",
          "type": "bool"
        }
      ],
      "name": "setApprovalForAll",
      "outputs": [],
      "stateMutability": "nonpayable",
      "type": "function"
    },
    {
      "inputs": [
        {
          "internalType": "bytes4",
          "name": "interfaceId",
          "type": "bytes4"
        }
      ],
      "name": "supportsInterface",
      "outputs": [
        {
          "internalType": "bool",
          "name": "",
          "type": "bool"
        }
      ],
      "stateMutability": "view",
      "type": "function"
    },
    {
      "inputs": [],
      "name": "symbol",
      "outputs": [
        {
          "internalType": "string",
          "name": "",
          "type": "string"
        }
      ],
      "stateMutability": "view",
      "type": "function"
    },
    {
      "inputs": [
        {
          "internalType": "uint256",
          "name": "tokenId",
          "type": "uint256"
        }
      ],
      "name": "tokenURI",
      "outputs": [
        {
          "internalType": "string",
          "name": "",
          "type": "string"
        }
      ],
      "stateMutability": "view",
      "type": "function"
    },
    {
      "inputs": [
        {
          "internalType": "address",
          "name": "from",
          "type": "address"
        },
        {
          "internalType": "address",
          "name": "to",
          "type": "address"
        },
        {
          "internalType": "uint256",
          "name": "tokenId",
          "type": "uint256"
        }
      ],
      "name": "transferFrom",
      "outputs": [],
      "stateMutability": "nonpayable",
      "type": "function"
    }
  ],
  "bytecode": "0x60806040523480156200001157600080fd5b50604080518082018252600c81526b50726f4e46544c656167756560a01b60208083019182528351808501909452600384526214139360ea1b908401528151919291620000619160009162000080565b5080516200007790600190602084019062000080565b50505062000163565b8280546200008e9062000126565b90600052602060002090601f016020900481019282620000b25760008555620000fd565b82601f10620000cd57805160ff1916838001178555620000fd565b82800160010185558215620000fd579182015b82811115620000fd578251825591602001919060010190620000e0565b506200010b9291506200010f565b5090565b5b808211156200010b576000815560010162000110565b600181811c908216806200013b57607f821691505b602082108114156200015d57634e487b7160e01b600052602260045260246000fd5b50919050565b61175480620001736000396000f3fe6080604052600436106100f35760003560e01c80636352211e1161008a578063b88d4fde11610059578063b88d4fde1461029f578063c87b56dd146102bf578063e985e9c5146102df578063f905c15a1461032857600080fd5b80636352211e1461022a57806370a082311461024a57806395d89b411461026a578063a22cb4651461027f57600080fd5b806316c51496116100c657806316c51496146101a957806323b872dd146101bc57806333eba49a146101dc57806342842e0e1461020a57600080fd5b806301ffc9a7146100f857806306fdde031461012d578063081812fc1461014f578063095ea7b314610187575b600080fd5b34801561010457600080fd5b506101186101133660046113f0565b61035e565b60405190151581526020015b60405180910390f35b34801561013957600080fd5b506101426103b0565b6040516101249190611524565b34801561015b57600080fd5b5061016f61016a366004611473565b610442565b6040516001600160a01b039091168152602001610124565b34801561019357600080fd5b506101a76101a2366004611393565b610469565b005b6101a76101b73660046113bd565b610584565b3480156101c857600080fd5b506101a76101d736600461129f565b61060a565b3480156101e857600080fd5b506101fc6101f736600461142a565b61063b565b604051908152602001610124565b34801561021657600080fd5b506101a761022536600461129f565b610677565b34801561023657600080fd5b5061016f610245366004611473565b610692565b34801561025657600080fd5b506101fc610265366004611251565b6106f2565b34801561027657600080fd5b50610142610778565b34801561028b57600080fd5b506101a761029a366004611357565b610787565b3480156102ab57600080fd5b506101a76102ba3660046112db565b610796565b3480156102cb57600080fd5b506101426102da366004611473565b6107ce565b3480156102eb57600080fd5b506101186102fa36600461126c565b6001600160a01b03918216600090815260056020908152604080832093909416825291909152205460ff1690565b34801561033457600080fd5b5060408051808201909152600d81526c1248185b4819195c1b1bde5959609a1b6020820152610142565b60006001600160e01b031982166380ac58cd60e01b148061038f57506001600160e01b03198216635b5e139f60e01b145b806103aa57506301ffc9a760e01b6001600160e01b03198316145b92915050565b6060600080546103bf90611646565b80601f01602080910402602001604051908101604052809291908181526020018280546103eb90611646565b80156104385780601f1061040d57610100808354040283529160200191610438565b820191906000526020600020905b81548152906001019060200180831161041b57829003601f168201915b5050505050905090565b600061044d826108df565b506000908152600460205260409020546001600160a01b031690565b600061047482610692565b9050806001600160a01b0316836001600160a01b031614156104e75760405162461bcd60e51b815260206004820152602160248201527f4552433732313a20617070726f76616c20746f2063757272656e74206f776e656044820152603960f91b60648201526084015b60405180910390fd5b336001600160a01b0382161480610503575061050381336102fa565b6105755760405162461bcd60e51b815260206004820152603e60248201527f4552433732313a20617070726f76652063616c6c6572206973206e6f7420746f60448201527f6b656e206f776e6572206e6f7220617070726f76656420666f7220616c6c000060648201526084016104de565b61057f8383610941565b505050565b803411156105c95760405162461bcd60e51b81526020600482015260126024820152714e6f7420656e6f7567682062616c616e636560701b60448201526064016104de565b6040516001600160a01b038416903480156108fc02916000818181858888f193505050501580156105fe573d6000803e3d6000fd5b5061057f833384610677565b61061433826109af565b6106305760405162461bcd60e51b81526004016104de90611589565b61057f838383610a2d565b600061064b600780546001019055565b600061065660075490565b90506106623382610bc9565b61066c8184610d0b565b6103aa306001610787565b61057f83838360405180602001604052806000815250610796565b6000818152600260205260408120546001600160a01b0316806103aa5760405162461bcd60e51b8152602060048201526018602482015277115490cdcc8c4e881a5b9d985b1a59081d1bdad95b88125160421b60448201526064016104de565b60006001600160a01b03821661075c5760405162461bcd60e51b815260206004820152602960248201527f4552433732313a2061646472657373207a65726f206973206e6f7420612076616044820152683634b21037bbb732b960b91b60648201526084016104de565b506001600160a01b031660009081526003602052604090205490565b6060600180546103bf90611646565b610792338383610da5565b5050565b6107a033836109af565b6107bc5760405162461bcd60e51b81526004016104de90611589565b6107c884848484610e74565b50505050565b60606107d9826108df565b600082815260066020526040812080546107f290611646565b80601f016020809104026020016040519081016040528092919081815260200182805461081e90611646565b801561086b5780601f106108405761010080835404028352916020019161086b565b820191906000526020600020905b81548152906001019060200180831161084e57829003601f168201915b50505050509050600061088960408051602081019091526000815290565b905080516000141561089c575092915050565b8151156108ce5780826040516020016108b69291906114b8565b60405160208183030381529060405292505050919050565b6108d784610ea7565b949350505050565b6000818152600260205260409020546001600160a01b031661093e5760405162461bcd60e51b8152602060048201526018602482015277115490cdcc8c4e881a5b9d985b1a59081d1bdad95b88125160421b60448201526064016104de565b50565b600081815260046020526040902080546001600160a01b0319166001600160a01b038416908117909155819061097682610692565b6001600160a01b03167f8c5be1e5ebec7d5bd14f71427d1e84f3dd0314c0f7b2291e5b200ac8c7c3b92560405160405180910390a45050565b6000806109bb83610692565b9050806001600160a01b0316846001600160a01b03161480610a0257506001600160a01b0380821660009081526005602090815260408083209388168352929052205460ff165b806108d75750836001600160a01b0316610a1b84610442565b6001600160a01b031614949350505050565b826001600160a01b0316610a4082610692565b6001600160a01b031614610aa45760405162461bcd60e51b815260206004820152602560248201527f4552433732313a207472616e736665722066726f6d20696e636f72726563742060448201526437bbb732b960d91b60648201526084016104de565b6001600160a01b038216610b065760405162461bcd60e51b8152602060048201526024808201527f4552433732313a207472616e7366657220746f20746865207a65726f206164646044820152637265737360e01b60648201526084016104de565b610b11600082610941565b6001600160a01b0383166000908152600360205260408120805460019290610b3a908490611603565b90915550506001600160a01b0382166000908152600360205260408120805460019290610b689084906115d7565b909155505060008181526002602052604080822080546001600160a01b0319166001600160a01b0386811691821790925591518493918716917fddf252ad1be2c89b69c2b068fc378daa952ba7f163c4a11628f55a4df523b3ef91a4505050565b6001600160a01b038216610c1f5760405162461bcd60e51b815260206004820181905260248201527f4552433732313a206d696e7420746f20746865207a65726f206164647265737360448201526064016104de565b6000818152600260205260409020546001600160a01b031615610c845760405162461bcd60e51b815260206004820152601c60248201527f4552433732313a20746f6b656e20616c7265616479206d696e7465640000000060448201526064016104de565b6001600160a01b0382166000908152600360205260408120805460019290610cad9084906115d7565b909155505060008181526002602052604080822080546001600160a01b0319166001600160a01b03861690811790915590518392907fddf252ad1be2c89b69c2b068fc378daa952ba7f163c4a11628f55a4df523b3ef908290a45050565b6000828152600260205260409020546001600160a01b0316610d865760405162461bcd60e51b815260206004820152602e60248201527f45524337323155524953746f726167653a2055524920736574206f66206e6f6e60448201526d32bc34b9ba32b73a103a37b5b2b760911b60648201526084016104de565b6000828152600660209081526040909120825161057f92840190611126565b816001600160a01b0316836001600160a01b03161415610e075760405162461bcd60e51b815260206004820152601960248201527f4552433732313a20617070726f766520746f2063616c6c65720000000000000060448201526064016104de565b6001600160a01b03838116600081815260056020908152604080832094871680845294825291829020805460ff191686151590811790915591519182527f17307eab39ab6107e8899845ad3d59bd9653f200f220920489ca2b5937696c31910160405180910390a3505050565b610e7f848484610a2d565b610e8b84848484610f1b565b6107c85760405162461bcd60e51b81526004016104de90611537565b6060610eb2826108df565b6000610ec960408051602081019091526000815290565b90506000815111610ee95760405180602001604052806000815250610f14565b80610ef384611028565b604051602001610f049291906114b8565b6040516020818303038152906040525b9392505050565b60006001600160a01b0384163b1561101d57604051630a85bd0160e11b81526001600160a01b0385169063150b7a0290610f5f9033908990889088906004016114e7565b602060405180830381600087803b158015610f7957600080fd5b505af1925050508015610fa9575060408051601f3d908101601f19168201909252610fa69181019061140d565b60015b611003573d808015610fd7576040519150601f19603f3d011682016040523d82523d6000602084013e610fdc565b606091505b508051610ffb5760405162461bcd60e51b81526004016104de90611537565b805181602001fd5b6001600160e01b031916630a85bd0160e11b1490506108d7565b506001949350505050565b60608161104c5750506040805180820190915260018152600360fc1b602082015290565b8160005b8115611076578061106081611681565b915061106f9050600a836115ef565b9150611050565b60008167ffffffffffffffff811115611091576110916116f2565b6040519080825280601f01601f1916602001820160405280156110bb576020820181803683370190505b5090505b84156108d7576110d0600183611603565b91506110dd600a8661169c565b6110e89060306115d7565b60f81b8183815181106110fd576110fd6116dc565b60200101906001600160f81b031916908160001a90535061111f600a866115ef565b94506110bf565b82805461113290611646565b90600052602060002090601f016020900481019282611154576000855561119a565b82601f1061116d57805160ff191683800117855561119a565b8280016001018555821561119a579182015b8281111561119a57825182559160200191906001019061117f565b506111a69291506111aa565b5090565b5b808211156111a657600081556001016111ab565b600067ffffffffffffffff808411156111da576111da6116f2565b604051601f8501601f19908116603f01168101908282118183101715611202576112026116f2565b8160405280935085815286868601111561121b57600080fd5b858560208301376000602087830101525050509392505050565b80356001600160a01b038116811461124c57600080fd5b919050565b60006020828403121561126357600080fd5b610f1482611235565b6000806040838503121561127f57600080fd5b61128883611235565b915061129660208401611235565b90509250929050565b6000806000606084860312156112b457600080fd5b6112bd84611235565b92506112cb60208501611235565b9150604084013590509250925092565b600080600080608085870312156112f157600080fd5b6112fa85611235565b935061130860208601611235565b925060408501359150606085013567ffffffffffffffff81111561132b57600080fd5b8501601f8101871361133c57600080fd5b61134b878235602084016111bf565b91505092959194509250565b6000806040838503121561136a57600080fd5b61137383611235565b91506020830135801515811461138857600080fd5b809150509250929050565b600080604083850312156113a657600080fd5b6113af83611235565b946020939093013593505050565b6000806000606084860312156113d257600080fd5b6113db84611235565b95602085013595506040909401359392505050565b60006020828403121561140257600080fd5b8135610f1481611708565b60006020828403121561141f57600080fd5b8151610f1481611708565b60006020828403121561143c57600080fd5b813567ffffffffffffffff81111561145357600080fd5b8201601f8101841361146457600080fd5b6108d7848235602084016111bf565b60006020828403121561148557600080fd5b5035919050565b600081518084526114a481602086016020860161161a565b601f01601f19169290920160200192915050565b600083516114ca81846020880161161a565b8351908301906114de81836020880161161a565b01949350505050565b6001600160a01b038581168252841660208201526040810183905260806060820181905260009061151a9083018461148c565b9695505050505050565b602081526000610f14602083018461148c565b60208082526032908201527f4552433732313a207472616e7366657220746f206e6f6e20455243373231526560408201527131b2b4bb32b91034b6b83632b6b2b73a32b960711b606082015260800190565b6020808252602e908201527f4552433732313a2063616c6c6572206973206e6f7420746f6b656e206f776e6560408201526d1c881b9bdc88185c1c1c9bdd995960921b606082015260800190565b600082198211156115ea576115ea6116b0565b500190565b6000826115fe576115fe6116c6565b500490565b600082821015611615576116156116b0565b500390565b60005b8381101561163557818101518382015260200161161d565b838111156107c85750506000910152565b600181811c9082168061165a57607f821691505b6020821081141561167b57634e487b7160e01b600052602260045260246000fd5b50919050565b6000600019821415611695576116956116b0565b5060010190565b6000826116ab576116ab6116c6565b500690565b634e487b7160e01b600052601160045260246000fd5b634e487b7160e01b600052601260045260246000fd5b634e487b7160e01b600052603260045260246000fd5b634e487b7160e01b600052604160045260246000fd5b6001600160e01b03198116811461093e57600080fdfea26469706673582212200deb1821c9f093b87b76d5dfe28b7688679cd6cc2b709a5b2458adb1900b32fd64736f6c63430008070033",
  "linkReferences": {},
  "deployedLinkReferences": {}
}